:020000040800F2
:100000001006002045010008E9170008110F00083C
:100010005D1700082305000801210008000000000A
:10002000000000000000000000000000191B000894
:100030001F060008000000007D180008FB1D0008D6
:100040005F0100085F0100085F0100085F01000810
:100050005F0100085F0100085F0100085F01000800
:100060005F0100085F0100085F0100085F010008F0
:100070005F0100085F0100085F0100085F010008E0
:100080005F0100085F0100085F0100085F010008D0
:100090005F0100085F0100085F0100085F010008C0
:1000A0005F0100085F0100085F0100085F010008B0
:1000B0005F0100085F0100085F0100085F010008A0
:1000C0005F0100085F0100085F0100085F01000890
:1000D0005F0100085D1E00085F0100085F01000865
:1000E0005F0100085F0100085F0100085F01000870
:1000F0005F0100085F0100085F0100085F01000860
:100100005F0100085F0100085F0100085F0100084F
:100110005F0100085F0100085F0100085F0100083F
:100120005F0100085F0100085F0100085F0100082F
:10013000DFF80CD000F0EEF8004800472922000854
:10014000100600200648804706480047FEE7FEE705
:10015000FEE7FEE7FEE7FEE7FEE7FEE7FEE7FEE777
:10016000FD1D00083101000880EA010210B502F00F
:100170000043400022D04A001FD0010E01EB126163
:10018000C0F35600C2F3560240F4000042F40002ED
:10019000A0FB022000047F39140400D0401C50EA68
:1001A000124001D44000491EC2B20C0604EBD0102C
:1001B000401C4008802A02D003E0002010BD20F03F
:1001C0000100002900DA0020184310BD30B480EA95
:1001D000010202F0004530F0004221F0004013D04F
:1001E00090B1C30DD40DC2F31601C0F31600E41A8A
:1001F00041F4000140F400027D34914201D3641CBB
:1002000000E04900002C02DA30BC002070474FF4B7
:1002100000000023914201D3891A034340084FEAAA
:100220004101F7D151B1914202D14FF0004105E0B7
:1002300002D24FF0010101E06FF0010103EBC45065
:10024000284430BC00F02EB896230022114600F05E
:1002500032B820F00040C10DC0F3160040F4000099
:100260007F2901DA00207047962903DCC1F196014D
:10027000C84070479639884070470000002801DB6D
:10028000C0F10040002901DBC1F10041814270470B
:10029000002801DBC0F10040002901DBC1F1004171
:1002A000884270470029A8BF7047401C490008BF1A
:1002B00020F00100704710B4B0FA80FC00FA0CF096
:1002C00050EA010404BF10BC704749B1CCF12004CE
:1002D00021FA04F411FA0CF118BF0121214308435B
:1002E000A3EB0C01CB1D4FEA00614FEA102042BF87
:1002F000002010BC704700EBC35010440029A4BF7D
:1003000010BC7047401C490008BF20F0010010BC21
:1003100070470000064C074D06E0E06840F001031E
:1003200094E8070098471034AC42F6D3FFF704FF77
:10033000A4460008C446000821B1826842F00102C8
:10034000826003E0826822F0010282607047014609
:1003500000208A6802F004020AB1012000E00020B7
:1003600070470146C86C80B270470246002013688F
:100370000B400BB1012000E0002070470146002037
:100380008A6802F008020AB1012000E000207047EC
:100390002DE9F04100F03CF806463046FFF754FFE7
:1003A00007460549FFF7E0FE05460449FFF70EFF43
:1003B00004462046BDE8F0813333534000F07F45CA
:1003C00030B502460020002350680F4C20400D79C4
:1003D0000C6844EA05242043506090680B4C204090
:1003E000D1E902542C434D7944EA450420439060FE
:1003F000D06A20F470000C7C641EE4B2234340EA0F
:100400000350D06230BD0000FFFEF0FFFDF7F1FFAA
:1004100010B5052301221146084800F011F801210A
:10042000064800F06EF800BF02210448FFF79DFF68
:100430000028F9D00148FFF794FF10BD00240140C7
:10044000F0B504460D4600200021092D11DDE068BD
:10045000A5F10A0606EB4607072606FA07F18843C8
:10046000A5F10A0606EB460603FA06F10843E0602A
:100470000CE0206905EB4507072606FA07F18843DB
:1004800005EB450603FA06F108432061072A0FDA57
:10049000606B561E06EB86071F2606FA07F1884397
:1004A000561E06EB860605FA06F10843606322E055
:1004B0000D2A0FDA206BD61F06EB86071F2606FAD9
:1004C00007F18843D61F06EB860605FA06F10843B6
:1004D000206310E0E06AA2F10D0606EB86071F26F6
:1004E00006FA07F18843A2F10D0606EB860605FA27
:1004F00006F10843E062F0BD816841F008018160C7
:10050000704721B1826842F4A002826003E08268F1
:1005100022F4A00282607047816841F0040181608A
:10052000704700BFFEE7000070B515240CE00625FB
:1005300006E000222946204600F022FE681C85B213
:100540006E2DF6DB601C84B2962CF0DB0020024995
:10055000087000F08DF870BD200000202DE9F041FA
:1005600080460D4616461F46002419E004EB041091
:100570000D4911F81000B04210D104EB041001EB4A
:1005800040004078B84209D104EB04100A4602EB5F
:100590004000811C2A46404600F036F8601C84B2B8
:1005A000402CE3DBBDE8F081FC3A00082DE9F04186
:1005B00080460D4616461F4600241FE004EB8400CB
:1005C00000EB44100F4911F81000B04214D104EBB5
:1005D000840000EB441001EB40004078B8420BD19E
:1005E00004EB840000EB44100A4602EB4000811C3F
:1005F0002A46404600F008F8601C84B2092CDDDB76
:10060000BDE8F081C043000810B5002304E011F8F4
:10061000014B00F8014B5B1C9342F8D310BD7047AF
:100620002DE9F04385B004460D4617461E460E4898
:100630000088001B1FFA80F80B484088401B1FFAF7
:1006400080F900200949098810224B46CDE901278D
:100650000096CDE9031042462946204600F00EFBE5
:1006600005B0BDE8F0830000440000201800002021
:100670003EB54FF6FF706E23962219460090142067
:1006800000F028FD4FF6FF706E2314220521009024
:10069000104600F01FFD61A04FF6FF710C221346BB
:1006A000CDE900210290102271210F2000F09EFF61
:1006B0005BA04FF6FF710C221346CDE9002102909A
:1006C000102271212D2000F091FF56A04FF6FF71EE
:1006D0000C221346CDE900210290102271214B20FB
:1006E00000F084FF50A04FF6FF710C221346CDE9B5
:1006F0000021029010227121692000F077FF4BA0A9
:100700004FF6FF710C221346CDE90021029014220E
:100710007121872000F06AFF45A04FF6FF710C227F
:100720001346CDE90021029010226821982000F0A4
:100730005DFF40A04FF6FF710C221346CDE900216A
:10074000029010226A21002000F050FF3AA04FF6DC
:10075000FF710C221346CDE9002102901022552191
:10076000002000F043FF35A04FF6FF710C22134626
:10077000CDE90021029010224021002000F036FF38
:100780002FA04FF6FF710C221346CDE900210290F5
:1007900010222B21002000F029FF2AA04FF6FF7124
:1007A0000C221346CDE900210290102216210020D0
:1007B00000F01CFF24A04FF6FF710C221346CDE978
:1007C0000021029010220121002000F00FFF0125DE
:1007D00013E0C5EB0510C0EBC000052190FBF1F064
:1007E000401D84B24FF6FF7023461422214600902C
:1007F000112000F06FFC681C85B2042DE9DD13A008
:100800004FF6FF710C221346CDE900210290102211
:100810000021084600F0EAFE3EBD00003000000066
:100820003330000036300000393000003132300003
:10083000742F73003056000031560000325600000D
:1008400033560000345600003556000075285629EE
:10085000000000002DE9FF4704460D4616461F46DE
:100860000B480088001B1FFA80F809484088401B8D
:100870001FFA80F9002010214B464246CDE9007155
:10088000CDE902602946204601F040FABDE8FF8725
:10089000440000202DE9F04106460C4617464FF46F
:1008A0008051144800F0F6FA052000F050FA0320B9
:1008B00001F0DEF8C4F3074001F0DAF8C4F30720D2
:1008C00001F0D6F8E0B201F0D3F8002505E0FF20F2
:1008D00001F0CEF87055681C85B2BD42F7DB4FF4CD
:1008E0008051044800F0D4FA052000F030FABDE849
:1008F000F0810000000C01402DE9F04707468846D2
:1009000091461C463E78B9F1200F1ED009DCB9F1A2
:100910000C0F0DD0B9F1100F0FD0B9F1180F20D175
:100920000FE0B9F1300F14D0B9F1400F19D114E034
:1009300006FB04F000F5002515E00F4806FB040552
:1009400011E00E4806FB04050DE00D4806FB04050A
:1009500009E00C4806FB040505E00B4806FB04050E
:1009600001E0BDE8F08700BF224629464046FFF778
:1009700091FF00BFF5E70000000808000012080022
:100980000026080000480800009208002DE9FF5FDB
:1009900082460F4698469AF800900AF10100824676
:1009A0000478B9F1810F06DB402C04DBFF2C02D068
:1009B000B9F1FF0F0DD14FF0000B06E0002007F852
:1009C000010B0BF101001FFA80FBC345F6DBBDE80C
:1009D000FF9F7F2C03DAA4F14000C4B202E0A4F12F
:1009E0004100C4B2A9F1810000F0FF09BE2000FB64
:1009F000094000FB08F502980C2806D0102807D003
:100A0000182808D020280CD108E00A482E1809E040
:100A100009482E1806E005F5ED1603E005F5601609
:100A200000E0D4E700BF424631463846FFF732FFC8
:100A300000BFCCE70014090000DD110010B500F084
:100A400001F810BD10B586B04FF6FF7000F0A2FAA5
:100A5000002404E000200DF80400601CC4B2182C2F
:100A6000F8DB112200216846FFF714FF6B464FF4B4
:100A7000784210210846FFF7D3FD002404E000204F
:100A80000DF80400601CC4B2182CF8DB08221421F5
:100A90006846FFF7FFFE6B464FF478422021102096
:100AA000FFF7BEFD002404E000200DF80400601CE8
:100AB000C4B2182CF8DB08221E216846FFF7EAFEB4
:100AC0006B464FF4784230211020FFF7A9FDC82073
:100AD00001F084FB06B010BD2DE9FF4FC1B0804688
:100AE0000D461C46AB462046E31704EB5373DB1060
:100AF00021464FEAE47C04EB5C7C4FEAEC0CA4EB6F
:100B0000CC0CBCF1000F02D04FF0010C01E04FF013
:100B1000000C6344224604EBD27C4FEA6C0C03FBCE
:100B20000CF39FB20C2C0CD0102C0AD0182C08D02F
:100B3000202C06D0302C04D0402C02D045B0BDE88B
:100B4000F08F3B46224601A94398FFF7D5FE0026C9
:100B50002FE001A810F806904FF0000A23E009F0FA
:100B6000800028B1294640464E9A00F009FB06E075
:100B7000509820B9294640464F9A00F001FB4FEAB1
:100B800049604FEA1069681C85B2A5EB0B00A042D2
:100B900005D15D4608F101001FFA80F806E00AF170
:100BA00001001FFA80FABAF1080FD8DB00BF701CF1
:100BB00086B2BE42CDDB00BFC0E72DE9FF4FA1B03A
:100BC00080460D461C46AB462046E21704EB5272A7
:100BD000D2102146E31704EB5373DB10A4EBC303DD
:100BE0000BB1012300E000231A44624397B20C2C9E
:100BF00008D0102C06D0182C04D0202C02D025B000
:100C0000BDE8F08F3B46224601A92398FFF7BEFEC0
:100C100000262FE001A810F806904FF0000A23E00C
:100C200009F0800028B1294640462E9A00F0A8FA23
:100C300006E0309820B9294640462F9A00F0A0FAE5
:100C40004FEA49604FEA1069681C85B2A5EB0B00BA
:100C5000A04205D15D4608F101001FFA80F806E0C8
:100C60000AF1010000F0FF0ABAF1080FD8DB00BF5B
:100C7000701CC6B2BE42CDDB00BFC0E72DE9F04F0D
:100C800085B007460D4691469A46DDE90F4B0E9E0C
:100C9000B84604950020039052E0039888BB307852
:100CA000802802DD012003904AE004EBD47108EBB8
:100CB0000902A2EB6101B94202DA281985B247465E
:100CC00004985044001BA84200DA3CE030780D281C
:100CD00004D1281985B24746761C0AE0DDE91110D7
:100CE00023463246CDE900B1029029463846FFF747
:100CF000F3FE761C204604EBD07107EB61018FB246
:100D00001EE0FFE70020039008EB0900001BB8423B
:100D100002DA281985B2474604985044001BA842BD
:100D200000DA10E0DDE9110123463246CDE900B0DA
:100D3000029129463846FFF740FFB61C381987B2A2
:100D400030780028A9D100BF05B0BDE8F08F0021A0
:100D500007E0002201E0531CDAB2642AFBDB4B1CE3
:100D6000D9B28142F5DB70472DE9F04102460025FA
:100D70000026002000230024002791F803C00CF077
:100D80000F0591F803C00CF0100CBCF1000F03D05C
:100D900091F802C04CEA050591F800C0BCF1000FC3
:100DA00031D0146800202BE04FF0010C0CFA00F356
:100DB000B1F800C00CEA03069E4220D183004FF038
:100DC0000F0C0CFA03F7BC4305FA03FC4CEA0404CD
:100DD00091F803C0BCF1280F06D14FF0010C0CFABA
:100DE00000FCC2F814C00AE091F803C0BCF1480F3F
:100DF00005D14FF0010C0CFA00FCC2F810C0401CE9
:100E00000828D1D31460B1F800C0BCF1FF0F34DD65
:100E1000546800202EE000F1080C4FF0010808FA99
:100E20000CF3B1F800C00CEA03069E4221D1830006
:100E30004FF00F0C0CFA03F7BC4305FA03FC4CEA25
:100E4000040491F803C0BCF1280F05D100F1080C8F
:100E500008FA0CF8C2F8148091F803C0BCF1480FEE
:100E600007D100F1080C4FF0010808FA0CF8C2F89D
:100E70001080401C0828CED35460BDE8F0810246A3
:100E8000002093680B400BB1012000E00020704768
:100E900041617047016170472DE9F04705460C46F6
:100EA00090469A4695F80090681C05460778B9F177
:100EB000810F06DB402F04DBFF2F02D0B9F1FF0FBB
:100EC0000AD1002604E0002004F8010B701CC6B211
:100ED0004645F8DBBDE8F087BAF10C0F06D0BAF151
:100EE000100F04D0BAF1180F0FD107E00DE03B4608
:100EF0004A4641462046FFF731FB06E03B464A465C
:100F000041462046FFF752FB00BF00BF00BFE1E7AC
:100F100000BFFEE708B50121102000F0DDFC4FF412
:100F20000050ADF8000048208DF8030069460248E3
:100F3000FFF71AFF08BD00000010014010B504467D
:100F400014B10120114908701048007898B14FF48D
:100F500000510F48FFF793FF68B90A2001F03EF9EE
:100F600000200A4908704FF400510948FFF787FF35
:100F700050B9012010BD4FF400510548FFF77FFF25
:100F8000012801D1014908700020F3E71400002076
:100F90000010014070B5054600240E4843880288C1
:100FA0000021084600F04AFA0A48008809494988A1
:100FB00000FB01F60021084600F014FA00F0A0FB47
:100FC00000BF03E0284600F04FFB641CB442F9D395
:100FD00070BD00004400002010B50446A4B90020F4
:100FE0003A49887180200880A02048802C20088100
:100FF0002A2048812B208881C021362000F088FBE0
:1010000000203349087058E0012C14D100202F49EA
:10101000887180200880A02048802C2008812A2008
:1010200048812B2088814021362000F071FB002070
:101030002749087041E0022C14D10120234988710E
:10104000A0200880802048802C2008812A20488108
:101050002B208881A021362000F05AFB01201C495A
:1010600008702AE0032C14D1012018498871A020AF
:101070000880802048802C2008812A2048812B204D
:1010800088816021362000F043FB01201049087060
:1010900013E000200D49887180200880A02048803E
:1010A0002C2008812A2048812B208881C0213620CD
:1010B00000F02EFB0020064908700448438802888F
:1010C0000021084600F0BAF910BD000044000020DD
:1010D0001A0000202DE9FF4F85B081468A46002086
:1010E000039083460798A0EB09050898A0EB0A0631
:1010F000CDF80890CDF804A0002D01DD012705E012
:101100000DB9002702E04FF0FF376D42002E02DDDF
:101110004FF0010806E016B94FF0000802E04FF06A
:10112000FF387642B54201DD2C4600E0344600200F
:1011300004901EE0019A91B2029A90B2129A00F0C5
:101140001FF8039828440390B3440398A04205DD98
:101150000398001B0390029838440290A34504DDD5
:10116000ABEB040B0198404401900498401C80B202
:101170000490611C04988842DCDD09B0BDE8F08F62
:1011800070B505460E4614463146284600F02AF949
:101190000349088900F09CFA204600F065FA70BD0A
:1011A0004400002008B50121182000F095FB4FF401
:1011B0008050ADF8000003208DF8020010208DF85B
:1011C000030069460B48FFF7CFFDC020ADF80000D3
:1011D00003208DF8020010208DF8030069460648B0
:1011E000FFF7C2FD00F0F2FB80210348FFF752FE3B
:1011F00008BD0000000C01400010014010B5FFF7D1
:10120000D1FF00F028FA112000F062FA782000F0F7
:10121000E5FFB12000F05CFA052000F041FA3C2027
:1012200000F03EFA3C2000F03BFAB22000F050FA09
:10123000052000F035FA3C2000F032FA3C2000F0A6
:101240002FFAB32000F044FA052000F029FA3C20E0
:1012500000F026FA3C2000F023FA052000F020FAE6
:101260003C2000F01DFA3C2000F01AFAB42000F0F7
:101270002FFA032000F014FAC02000F029FA2820E9
:1012800000F00EFA082000F00BFA042000F008FA33
:10129000C12000F01DFAC02000F002FAC22000F0C8
:1012A00017FA0D2000F0FCF9002000F0F9F9C32036
:1012B00000F00EFA8D2000F0F3F92A2000F0F0F98A
:1012C000C42000F005FA8D2000F0EAF9EE2000F0CD
:1012D000E7F9C52000F0FCF91A2000F0E1F936200A
:1012E00000F0F6F9C02000F0DBF9E02000F0F0F9A2
:1012F000042000F0D5F9222000F0D2F9072000F0F8
:10130000CFF90A2000F0CCF92E2000F0C9F93020E6
:1013100000F0C6F9252000F0C3F92A2000F0C0F93A
:10132000282000F0BDF9262000F0BAF92E2000F0A8
:10133000B7F93A2000F0B4F9002000F0B1F901202B
:1013400000F0AEF9032000F0ABF9132000F0A8F98B
:10135000E12000F0BDF9042000F0A2F9162000F011
:101360009FF9062000F09CF90D2000F099F92D203E
:1013700000F096F9262000F093F9232000F090F970
:10138000272000F08DF9272000F08AF9252000F0B1
:1013900087F92D2000F084F93B2000F081F900202E
:1013A00000F07EF9012000F07BF9042000F078F9CC
:1013B000132000F075F93A2000F08AF9052000F0BA
:1013C0006FF9292000F084F90220FFF705FE802143
:1013D0000348FFF75FFD4FF6FF70FFF7DBFD10BD21
:1013E0000010014070B504460D461248007880B9DF
:1013F0001149488900F06CF9A11C88B200F034F959
:101400000D49888900F064F9691C88B200F02CF954
:101410000FE00949488900F05BF9611C88B200F0CF
:1014200023F90549888900F053F9A91C88B200F016
:101430001BF970BD1A000020440000202DE9F04186
:1014400004460D4616461F46A019401E86B2E819EE
:10145000401E87B21A480078C0B91A49488900F07E
:1014600037F9A11C88B200F0FFF8B11C88B200F077
:10147000FBF81449888900F02BF9691C88B200F048
:10148000F3F8791C88B200F0EFF817E00D494889AD
:1014900000F01EF9611C88B200F0E6F8711C88B2F9
:1014A00000F0E2F80749888900F012F9A91C88B217
:1014B00000F0DAF8B91C88B200F0D6F8BDE8F08187
:1014C0001A000020440000202DE9F84F80460E4607
:1014D00017461C46B3462046E31704EB5373DB1054
:1014E00021464FEAE47C04EB5C7C4FEAEC0CA4EB75
:1014F000CC0CBCF1000F02D04FF0010C01E04FF01A
:10150000000C6344224604EBD27C4FEA6C0C03FBD4
:101510000CF3DBB20093A7F12000C7B2002555E021
:101520000C2C07D107EB47002B4901EB800010F88A
:10153000059013E0102C05D1284800EB071010F897
:1015400005900BE0182C07D107EBC700244901EBED
:10155000800010F8059001E0BDE8F88F4FF0000A18
:101560002EE009F0800028B1314640460A9AFFF784
:1015700007FE07E00B9828B91A4802883146404612
:10158000FFF7FEFD4FEA49604FEA1069701C86B212
:1015900015484088B04200DCDEE7A6EB0B00A04215
:1015A0000AD15E4608F101001FFA80F80E48008853
:1015B000404500DCD0E706E00AF1010000F0FF0A38
:1015C000BAF1080FCDDB00BF681CC5B20098854298
:1015D000A6DB00BFC0E700003C230008B0270008DE
:1015E000A02D000818000020440000202DE9FC5F19
:1015F00004460D4690469946DDE90DA70C9E04F081
:10160000FF0B08EB04001FFA80F809EB05001FFA36
:1016100080F917E0444502DB5C46A81985B24D45C8
:1016200000DB15E00020CDE900A03A7833462946DA
:101630002046FFF749FF304606EBD07104EB61010D
:101640008CB27F1C38787E2802DC38782028E1DADA
:1016500000BFBDE8FC9F10B5012000F039F8322032
:1016600000F0BCFD10BD000010B504464FF48051E1
:101670000948FFF70DFC40210848FFF70BFC20123A
:1016800000F0F6F9E0B200F0F3F94FF480510248AF
:10169000FFF700FC10BD0000000C014000100140ED
:1016A00010B504464FF480510748FFF7F1FB402185
:1016B0000648FFF7EFFB204600F0DAF94FF48051BF
:1016C0000148FFF7E7FB10BD000C0140001001408E
:1016D00010B504464FF480510748FFF7D9FB40216D
:1016E0000648FFF7D5FBE0B200F0C2F94FF4805195
:1016F0000148FFF7CFFB10BD000C01400010014076
:1017000010B502490889FFF7E3FF10BD440000202F
:1017100070B505460C462846FFF7DAFFE0B2FFF742
:10172000BFFF70BD08B50121042000F0D5F84FF4CB
:101730008070ADF8000010208DF8030003208DF8B4
:10174000020069460448FFF70FFB4FF4807102481E
:10175000FFF7A0FB08BD00000008014000BFFEE746
:1017600000B587B001214FF4017000F0B5F84FF4D7
:10177000004000F085F80220ADF8180000208DF838
:101780001B0006A91648FFF7EFFA002001908DF81C
:1017900008008DF809004FF46020039000200490A9
:1017A00001208DF8140001A90E48FEF709FE012161
:1017B0000C48FEF7C1FD0B48FEF79EFE00BF09482E
:1017C000FEF7DCFD0028FAD10648FEF7A5FE00BFB3
:1017D0000448FEF7BCFD0028FAD107B000BD0000A8
:1017E0000008014000240140704710B54FF4A0608C
:1017F00000F03AF810BD000070B5002100230F2260
:10180000C47804B3154C246804F4E064C4F5E064BF
:10181000210AC1F10403CA40447804FA03F1847830
:101820001440214309010E4C0678A155047804F0B8
:101830001F050124AC4005786D11AD0005F1E025D0
:10184000C5F8004109E0047804F01F050124AC400C
:10185000044D0678761145F8264070BD0CED00E089
:1018600000E400E080E100E002490143024A116027
:10187000704700000000FA050CED00E07047000022
:1018800001460020034A506820F44040084350605D
:10189000704700000010024029B1064AD269024395
:1018A000044BDA6104E0034AD2698243014BDA61F6
:1018B000704700000010024029B1064A1269024335
:1018C000044B1A6104E0034A12698243014B1A6116
:1018D000704700000010024029B1064A9269024395
:1018E000044B9A6104E0034A92698243014B9A6176
:1018F000704700000010024030B500210022002493
:1019000000232D4D6D6805F00C0121B1042905D08F
:10191000082923D105E0294D056022E0274D056007
:101920001FE0254D6D6805F47012234D6D6805F4B8
:101930008034022505EB92421CB9214D55430560C8
:101940000BE01D4D6D6805F400351DB11C4D554370
:10195000056002E0194D5543056002E0174D056032
:1019600000BF00BF144D6D6805F0F0010909154D69
:101970006B5C0568DD4045600F4D6D6805F4E06106
:10198000090A104D6B5C4568DD4085600A4D6D6845
:1019900005F46051C90A0B4D6B5C4568DD40C560BC
:1019A000054D6D6805F44041890B074D6B5CC568BA
:1019B000B5FBF3F5056130BD0010024000127A005E
:1019C00000093D002E0000203E00002000B587B039
:1019D00001211820FFF780FF01210920FFF77CFF7C
:1019E0004FF46040ADF8180003208DF81A0018205D
:1019F0008DF81B0006A91C48FFF7B6F901218803E2
:101A0000FFF74AFF01218803FFF756FF00214FF43B
:101A10008040FFF751FF0020ADF804004FF48270C2
:101A2000ADF806000020ADF808000220ADF80A006D
:101A30000120ADF80C004002ADF80E000020ADF81A
:101A40001000ADF812000720ADF8140001A90748F6
:101A500000F044F80121054800F026F8FF2000F0CE
:101A600007F807B000BD0000000C0140003800403E
:101A700010B5044600BF02210A4800F021F80028F2
:101A8000F9D02146074800F027F800BF012105489A
:101A900000F016F80028F9D0024800F01AF8C0B299
:101AA00010BD00000038004021B1028842F0400221
:101AB000028004E002884FF6BF731A40028070472C
:101AC0000246002013890B400BB1012000E00020EA
:101AD00070470146888970478181704710B50022A0
:101AE000028802F441520B884C8823438C8823439C
:101AF000CC8823430C8923434C8923438C8923437B
:101B0000CC8923431A430280838B4FF2FF74234016
:101B100083830B8A038210BD704710B500F002F872
:101B200010BD00000CB50020019000903348006803
:101B300040F480303149086000BF3048006800F44C
:101B4000003000900198401C0190009818B901984D
:101B5000B0F5A06FF1D12948006800F4003010B151
:101B60000120009001E0002000900098012843D15E
:101B70002348006840F010002149086008460068CA
:101B800020F0030008600846006840F0020008608A
:101B90001A48406819494860084640684860084645
:101BA000406840F4806048600846406820F47C103B
:101BB00048600846406840F4E810486008460068FD
:101BC00040F08070086000BF0C48006800F00070B2
:101BD0000028F9D00948406820F003000749486010
:101BE0000846406840F00200486000BF0348406873
:101BF00000F00C000828F9D10CBD000000100240D4
:101C0000002002402DE9F04F93B0054688469146EA
:101C10001C46AB462046E21704EB5272D210214616
:101C2000E31704EB5373DB10A4EBC3030BB10123E5
:101C300000E000231A446243D7B20C2C06D0102CCB
:101C400004D0182C02D013B0BDE8F08F23463A46DA
:101C500069464846FFF720F900262FE01DF80600E8
:101C600012904FF0000A24E0129800F0800028B192
:101C7000414628461C9AFFF783FA07E01D9828B9C9
:101C80001048028841462846FFF77AFA1298400623
:101C9000000E1290681C85B2A5EB0B00A04204D187
:101CA0005D4608F101001FFA80F80AF1010000F01A
:101CB000FF0ABAF1080FD7DB701CC6B2BE42CDDBFB
:101CC00000BFC0E71800002010B506A300221421B1
:101CD0000A20FEF7BFFD08A300223C210A20FEF7E0
:101CE000B9FD10BDD6D3D4C6BAC620533235303173
:101CF0003331313337000000CEBAD6BEC5F420539D
:101D00003235303133323139380000002DE9FF5F90
:101D100007460E4691469A46DDE90F4B0E9DB846A2
:101D20000396002002904EE0029878BB2878802825
:101D300002DD0120029046E004EBD47108EB0902B9
:101D4000A2EB6101B94202DA301986B24746039824
:101D50005044001BB04200DA38E028780D2804D146
:101D6000301986B247466D1C08E01198CDE900B0E5
:101D70002A78234631463846FFF7A6FB6D1C2046DD
:101D800004EBD07107EB61018FB21CE0FFE700208C
:101D9000029008EB0900001BB84202DA301986B243
:101DA000474603985044001BB04200DA0EE01198F9
:101DB00023462A463146CDE900B03846FFF722FFD8
:101DC000AD1C381987B228780028ADD100BFBDE816
:101DD000FF9F042808D14FF0E021096941F0040178
:101DE0004FF0E022116107E04FF0E021096921F096
:101DF00004014FF0E02211617047704710B513489D
:101E0000006840F001001149086008464068104928
:101E100008400E494860084600680E4908400B49D2
:101E200008600846006820F4802008600846406882
:101E300020F4FE0048604FF41F008860FFF76DFE3D
:101E40004FF000600449086010BD0000001002401F
:101E50000000FFF8FFFFF6FE08ED00E010B540F2CD
:101E600025511D4800F04AF810B31B4800F002F954
:101E7000C4B21A48008800F40040C8B91748008866
:101E800000F4804060B10A2C03D000201349088080
:101E900020E01248008840F400401049088019E012
:101EA0000D2C06D10D48008840F480400B49088075
:101EB00010E00A480088C0F30D0009490C54074897
:101EC0000088401C0549088008460088C72801DDB5
:101ED0000020088010BD0000003801402C000020C8
:101EE0004201002021B1828942F40052828104E043
:101EF00082894DF6FF731A408281704770B50246A1
:101F0000002400230025002040F66A16B14200D1CB
:101F100000BFC1F3421501F01F03012606FA03F3C7
:101F2000012D02D19689334006E0022D02D1168A96
:101F3000334001E0968A33400C12012606FA04F47D
:101F40001688344013B10CB1012000E0002070BDB0
:101F5000F0B50346002400260025002040F66A174D
:101F6000B94200D100BF1846C1F3421401F01F0668
:101F7000012707FA06F5012C01D10C3004E0022CF0
:101F800001D1103000E014301AB107682F43076008
:101F900002E00768AF430760F0BD00002DE9F0479D
:101FA00086B005460E460024A24600BFA146002783
:101FB000B08900B100BF2F462C8A4CF6FF70044058
:101FC000F08804432C82AC894EF6F3100440B088AC
:101FD00031890843718908430443AC81AC8A4FF6C8
:101FE000FF400440B0890443AC8201A8FFF784FCA1
:101FF0001F48874202D1DDF810A001E0DDF80CA0F7
:10200000A88900F4004040B10AEBCA0000EB0A10B6
:1020100031684900B0FBF1F807E00AEBCA0000EBB9
:102020000A1031688900B0FBF1F86420B8FBF0F0C9
:1020300004012009642101FB1089A88900F40040F3
:1020400040B1322000EBC900B0FBF1F000F0070016
:10205000044308E0322000EB09106421B0FBF1F0EA
:1020600000F00F0004432C8106B0BDE8F0870000AB
:102070000038014001468888C0F30800704700001E
:102080002DE9F843FEF784F98046404600F03AF81F
:10209000044619481949097820F811401748007872
:1020A00000F115054FF4784221462846FFF768F8FD
:1020B00012480078002812DD1048007800F114065C
:1020C0000E480078401E0C4931F810704FF47840EB
:1020D00023462A46394600903046FEF7FBFF074864
:1020E0000078401C0549087008460078782801DB14
:1020F000FEF71AFABDE8F883520000202000002005
:1021000000BFFEE72DE9F041054611492846FEF7DC
:10211000BFF800D20E4D00212846FEF7AFF800D2DE
:1021200000250C492846FEF71FF807460A49FEF726
:102130004DF80646FEF78DF8C0F16E0084B2062C0D
:1021400000DA06246D2C00DD6D242046BDE8F08108
:10215000333353400000D2420000A0400BE0FFF7B1
:102160008FFFC82000F03AF80120FEF7E7FE0128B3
:1021700001D1FEF7D9F9F2E702E008C8121F08C141
:10218000002AFAD170477047002001E001C1121FF8
:10219000002AFBD17047000010B56FF00400FFF774
:1021A00018FE0A4800680A49B0FBF1F009490880A6
:1021B0000846008800EB4001C1EBC0104FF6FF71EC
:1021C00001EAC0000449088010BD000000000020A2
:1021D00000127A0022000020240000200146114A4B
:1021E00012884A434FF0E0235A6100229A611A464E
:1021F000126942F001021A6100BF4FF0E02210693B
:1022000000F001021AB100F48032002AF5D04FF03C
:10221000E022126922F001024FF0E0231A6100224D
:102220009A61704724000020FFF7B6FFFFF7DDFA40
:102230004FF4E13000F032F8FFF774FAFEF76AFE6F
:10224000FEF7DCFFFEF7FAFB0020124908804FF68C
:10225000FF7011490880FEF79DFEFFF735FD4FF432
:10226000FA60FFF7BBFF02E00A20FFF7B7FF01208B
:10227000FEF764FE0128F7D10020FEF78BFE002058
:1022800005490880FFF76CFAFEF7F2F9FFF766FFE1
:1022900000BFFEE7160000201800002010B586B031
:1022A0000446012144F20400FFF716FB4FF40070CE
:1022B000ADF8140003208DF8160018208DF81700D3
:1022C00005A91C48FEF750FD4FF48060ADF81400DE
:1022D00004208DF8170005A91648FEF745FD2520B6
:1022E0008DF8000003208DF801008DF80200012018
:1022F0008DF803006846FFF77FFA01940020ADF8DF
:102300000800ADF80A00ADF80C00ADF810000C2084
:10231000ADF80E0001A90848FFF740FE012240F287
:1023200025510548FFF714FE01210348FFF7DAFDA8
:1023300006B010BD00080140003801400000000058
:102340000000000000000000000000003F4000000E
:10235000000000000000300040003000400000009D
:1023600009000BC03D000BC03D00090018C024400F
:102370007FE0224031800000180024C01B000D8047
:102380003240018003801C4027401C8007400040F1
:1023900010006000000000000000000000000000CD
:1023A00000001F80204040200000402020401F806F
:1023B00000000000090006001F8006000900000060
:1023C000040004003F8004000400000000100060CE
:1023D00000000000000000000400040004000400ED
:1023E00004000000000000400000000000000000A9
:1023F000002001C006003800400000001F8020407F
:10240000204020401F800000000010403FC00040DE
:102410000000000018C02140224024401840000065
:1024200010802040244024401B80000002000D004A
:1024300011003FC0014000003C8024402440244063
:10244000238000001F80244024403440038000008B
:102450003000200027C03800200000001B802440EE
:10246000244024401B8000001C0022C02240224047
:102470001F80000000000000084000000000000075
:1024800000000000046000000000000000000400E4
:102490000A001100208040400900090009000900DD
:1024A0000900000000004040208011000A000400E4
:1024B0001800200023402400180000001F80204046
:1024C000274029401F400000004007C039000F008E
:1024D00001C0004020403FC0244024401B80000039
:1024E0001F802040204020403080000020403FC01E
:1024F000204020401F80000020403FC024402E404C
:1025000030C0000020403FC024402E0030000000BA
:102510000F001080204022403380020020403FC046
:10252000040004003FC02040204020403FC0204025
:10253000204000000060202020203FC0200020001C
:1025400020403FC024400B0030C0204020403FC00E
:1025500020400040004000C03FC03C0003C03C00A1
:102560003FC0000020403FC00C4023003FC020007F
:102570001F802040204020401F80000020403FC09E
:1025800024402400180000001F802140214020E04A
:102590001FA0000020403FC02440260019C000407A
:1025A00018C02440244022403180000030002040E8
:1025B0003FC020403000000020003F80004000402D
:1025C0003F80200020003E0001C0070038002000AE
:1025D000380007C03C0007C038000000204039C068
:1025E000060039C0204000002000384007C03840B5
:1025F00020000000304021C02640384020C00000AC
:10260000000000007FE0402040200000000070003B
:102610000C000380004000000000402040207FE0CC
:10262000000000000000200040002000000000002A
:10263000001000100010001000100010000000003A
:10264000400000000000000000000280054005403E
:1026500003C0004020003FC004400440038000004D
:102660000000038004400440064000000000038096
:10267000044024403FC00040000003800540054066
:1026800003400000000004401FC0244024402000FC
:10269000000002E0055005500650042020403FC0D5
:1026A0000440040003C000400000044027C0004074
:1026B0000000000000100010041027E000000000DF
:1026C00020403FC00140070004C00440204020409B
:1026D0003FC000400040000007C0040007C00400E5
:1026E00003C00000044007C00440040003C00040D1
:1026F000000003800440044003800000041007F041
:102700000450044003800000000003800440045093
:1027100007F00010044007C002400400040000005D
:10272000000006400540054004C000000000040011
:102730001F80044000400000040007800040044067
:1027400007C000400400070004C001800600040028
:10275000060001C0070001C006000000044006C0DA
:10276000010006C0044000000410071004E00180CE
:10277000060004000000044005C0064004400000BC
:102780000000000004007BE040200000000000008A
:102790000000FFF000000000000040207BE004008B
:1027A00000000000400080004000200020004000A9
:1027B0000000000000000000000000000000000019
:1027C0000000000000001FCC000C00000000000012
:1027D00000000800300060000800300060000000C9
:1027E000022003FC1E20022003FC1E200220000009
:1027F00000000E1811043FFF10840C780000000048
:102800000F0010840F3800C007781884007800008B
:1028100000780F8410C411240E9800E4008400088E
:1028200008006800700000000000000000000000C8
:1028300000000000000007E018182004400200001B
:10284000000040022004181807E00000000000000B
:102850000240024001800FF001800240024000006F
:102860000080008000800FF8008000800080000061
:102870000001000D000E000000000000000000003C
:1028800000000080008000800080008000800080C8
:102890000000000C000C0000000000000000000020
:1028A00000000006001800600180060018002000EB
:1028B000000007F0080810041004080807F00000E2
:1028C0000000080408041FFC0004000400000000CD
:1028D00000000E0C10141024104411840E0C000083
:1028E00000000C1810041104110412880C70000070
:1028F000000000E00320042408241FFC0024000042
:1029000000001F981084110411041088107000003A
:10291000000007F0088811041104188800700000F6
:1029200000001C00100010FC13001C001000000030
:1029300000000E3811441084108411440E38000039
:1029400000000700088C10441044088807F00000BD
:10295000000000000000030C030C00000000000059
:10296000000000000001010600000000000000005F
:10297000000000800140022004100808100400003C
:102980000220022002200220022002200220000059
:10299000000010040808041002200140008000001C
:1029A00000000E001200100C106C10800F000000D0
:1029B00003E00C1813E4142417C4082807D00000FF
:1029C0000004003C03C41C40074000E4001C000459
:1029D00010041FFC1104110411040E880070000083
:1029E00003E00C1810041004100410081C10000060
:1029F00010041FFC100410041004080807F0000065
:102A000010041FFC1104110417C41004081800005E
:102A100010041FFC1104110017C010000800000072
:102A200003E00C181004100410441C78004000004F
:102A300010041FFC10840080008010841FFC100410
:102A40000000100410041FFC10041004000000001B
:102A500000030001100110011FFE10001000000013
:102A600010041FFC110403801464181C10040000DF
:102A700010041FFC1004000400040004000C0000FB
:102A800010041FFC1F0000FC1F001FFC10040000AE
:102A900010041FFC0C04030000E010181FFC1000C1
:102AA00007F00808100410041004080807F00000DC
:102AB00010041FFC10841080108010800F00000094
:102AC00007F0081810241024101C080A07F2000050
:102AD00010041FFC1104110011C011300E0C000471
:102AE00000000E1C11041084108410441C380000D7
:102AF0001800100010041FFC100410001800000043
:102B000010001FF810040004000410041FF8100047
:102B100010001E0011E0001C007013801C0010004B
:102B20001FC0103C00E01F0000E0103C1FC0000070
:102B30001004180C163401C001C01634180C10040F
:102B400010001C00130400FC13041C001000000003
:102B50000804101C1064108413041C0410180000D6
:102B60000000000000007FFE400240024002000022
:102B7000000030000C0003800060001C0003000017
:102B800000004002400240027FFE00000000000002
:102B90000000000020004000400040002000000035
:102BA000000100010001000100010001000100011D
:102BB0000000400040002000000000000000000075
:102BC00000000098012401440144014400FC000479
:102BD00010001FFC00880104010400880070000040
:102BE0000000007000880104010401040088000056
:102BF0000000007000880104010411081FFC00049B
:102C0000000000F8014401440144014400C80000F0
:102C10000000010401040FFC11041104110018004C
:102C2000000000D601290129012901C9010600007F
:102C300010041FFC008401000100010400FC0004DA
:102C400000000104190419FC000400040000000045
:102C50000000000300010101190119FE000000003D
:102C600010041FFC0024004001B4010C010400000A
:102C70000000100410041FFC000400040000000009
:102C8000010401FC0104010001FC0104010000FC3D
:102C9000010401FC008401000100010400FC0004A7
:102CA000000000F8010401040104010400F8000020
:102CB000010101FF0085010401040088007000008B
:102CC00000000070008801040104010501FF0001FB
:102CD0000104010401FC00840104010001800000E2
:102CE000000000CC012401240124012401980000EB
:102CF00000000100010007F80104010400000000C9
:102D0000010001F8000400040004010801FC0004B3
:102D1000010001800170000C0010016001800100C1
:102D200001F0010C003001C00030010C01F0010085
:102D300000000104018C00740170018C010400008A
:102D4000010101810171000E001801600180010084
:102D500000000184010C013401440184010C0000D5
:102D6000000000000000000001003EFC40024002A4
:102D70000000000000000000FFFF00000000000055
:102D80000000400240023EFC010000000000000084
:102D90000000600080008000400040002000200013
:102DA0000000000000000000000000000000000023
:102DB0000000000000000000000000000000000013
:102DC0000000000000000000000000000000000003
:102DD0000000000F80380FFE380F80380000000020
:102DE00000000000000000000000000000000100E2
:102DF000000600000C000038000031000006000052
:102E00000C0000380000300000000000000000004E
:102E100061800067F807F9800061800061800061CF
:102E2000800061800067F807F98000618000000081
:102E300000000000000001C0E003E0F006300804DC
:102E400018081FFFFE040E080787F00381E000004A
:102E50000000000001F000060C00040408060C70DD
:102E600001F9C0000E00003BE000EC180708080460
:102E70000C180003E00000000001E00007F003F878
:102E800018041C0804170807E1D003C0E00023B0B1
:102E9000003C0800200800001000000000000001B5
:102EA00000003100003200001C00000000000000A3
:102EB0000000000000000000000000000000000012
:102EC0000000000000000000000000000000000002
:102ED0007F0001FFC00780F00C00181000042000E4
:102EE000020000000000002000021000040C001886
:102EF0000780F001FFC0007F00000000000000001C
:102F00000000000000000000000000004200006619
:102F100000006600003C0000180003FFC00018001D
:102F2000003C000066000066000042000000000057
:102F3000080000080000080000080000080001FF69
:102F4000C000080000080000080000080000080099
:102F500000000000000100003100003200001C00F1
:102F60000000000000000000000000000000000061
:102F70000000000000000000080000080000080039
:102F80000008000008000008000008000008000019
:102F90000800000800000000000000000000000021
:102FA0003800003800003800000000000000000079
:102FB0000000000000000000000000000000000011
:102FC000000600001C000070000180000E000038A8
:102FD0000000C0000700001C0000300000000000DE
:102FE000000000007F8001FFE003807006001804ED
:102FF000000804000806001803807001FFE0007F4D
:10300000800000000000000000000100080100082E
:1030100001000803FFF807FFF8000008000008009F
:10302000000800000000000000000001C03802C0DD
:1030300058040098040118040218040418061C1807
:1030400003F81801E0F80000000000000000000193
:10305000C0E003C0F00400080408080408080618CB
:103060000803F41801E7F00001E000000000000090
:10307000000000000300000D0000110000610000CE
:10308000810803010807FFF80FFFF800010800019D
:10309000080000000000000000E007FCD00608085F
:1030A000061008061008061008061838060FF00665
:1030B00007C0000000000000000000003F8001FF8A
:1030C000E0038430020818041008041008041008F3
:1030D000071810030FF00007C000000000000000F8
:1030E000000003C0000700000600000600F8060705
:1030F000F806180006E000070000060000000000C7
:1031000000000001E1E003F7F006341004180804A1
:103110001808040C08040C0806161803F3F001C183
:10312000E000000000000000F80003FC3003063857
:103130000402080402080402080404100308F00151
:10314000FFC0007F00000000000000000000000041
:103150000000000000000000703800703800703877
:10316000000000000000000000000000000000005F
:10317000000000000000000000000000301A0030D5
:103180001C00000000000000000000000000000023
:1031900000000000000000080000140000220000F1
:1031A000410000808001004002002004001008005F
:1031B00008000000000000002100002100002100A4
:1031C000002100002100002100002100002100005A
:1031D00021000021000000000000000000000800A5
:1031E000080400100200200100400080800041001F
:1031F000002200001400000800000000000000038E
:10320000C00004C000040000080038080F38080897
:10321000380810000C300007E00003C00000000078
:10322000000000003F8000FFE0038070020F1006E6
:10323000708804C088048308047F8802C09003015A
:103240002000FE400000080000180001F8003E08C1
:1032500001C20007020007E20000FE00001FC800D4
:1032600001F800003800000804000807FFF807FF15
:10327000F8040808040808040808040808061808E0
:1032800003F41801E7F00001E00000000000000076
:103290003F8001FFE0038070020018040008040072
:1032A000080400080400100600200780C000000089
:1032B00004000807FFF807FFF804000804000804EA
:1032C000000804001802001003807001FFE0007F76
:1032D0008000000004000807FFF807FFF804080852
:1032E000040808040808040808043E080400080646
:1032F000001801006000000004000807FFF807FF45
:10330000F8040808040800040800040800043E004B
:103310000600000600000180000000000000000020
:103320003F8001FFE00380700600180400080402DB
:10333000080402080203F00783F000020000020004
:1033400004000807FFF807FFF80408080008000059
:10335000080000080000080004080807FFF807FF3D
:10336000F804000800000000000004000804000841
:1033700004000807FFF807FFF80400080400080429
:10338000000800000000000000000000000600002F
:103390000700000104000104000104000307FFFE10
:1033A00007FFFC04000004000004000004000807FC
:1033B000FFF807FFF8040C08001800003E0004C7DF
:1033C000800503C80600F80400380400180000084F
:1033D00004000807FFF807FFF804000800000800D1
:1033E00000080000080000080000080000180000A5
:1033F0006000000004000807FFF807800807FC00D1
:10340000007FC00003F80007C000780007800807AD
:10341000FFF807FFF804000804000807FFF807009A
:103420000803C00000E000003800001E0000070094
:103430000001C00400F007FFF804000000000000D5
:103440007F8001FFE003807006001804000804007C
:103450000806001803003001FFE0007F8000000034
:1034600004000807FFF807FFF80404080404000438
:103470000400040400040400060C0003F80001F03A
:1034800000000000000000007F8001FFE00380706A
:103490000600880400880400C806003C03003E01C2
:1034A000FFE6007F8400000004000807FFF807FF24
:1034B000F8040808040800040C00040F00040BC002
:1034C0000610F003F03801E00800000800000001D9
:1034D000E0F803F030063010041808041808040C53
:1034E00008040C080206180207F00781E00000003B
:1034F000018000060000040000040000040008072A
:10350000FFF807FFF80400080400000400000600AC
:103510000001800004000007FFE007FFF00400182E
:10352000000008000008000008000008000008046F
:10353000001007FFE004000004000006000007E0A0
:103540000007FE00041FE00001F80000380001E061
:10355000043E0007C000060000040000040000074D
:10356000E00007FFC0041FF80007C007F80007FFCE
:1035700080043FF80007C004F800070000040000C2
:1035800000000004000806001807C07805F1C80014
:103590003E00001F800463E80780F806001804005E
:1035A0000800000004000006000007800007E00893
:1035B000047C08001FF80007F800180804E008075A
:1035C00000000600000400000000000100080600E2
:1035D000380400F80403E8040F08047C0805F00828
:1035E00007C0080700180400600000000000000089
:1035F00000000000000000000000003FFFFE20006F
:103600000220000220000220000220000200000030
:1036100000000000000008000007000000C00000DB
:1036200038000006000001C000003000000E00005D
:103630000100000000000000000020000220000245
:103640002000022000022000023FFFFE00000000D8
:10365000000000000000000000000000000000006A
:1036600000080000100000300000200000300000C2
:103670001000000800000000000000000000010031
:103680000001000001000001000001000001000035
:103690000100000100000100000100000100000124
:1036A00000000000000000000020000020000010CA
:1036B00000001000000000000000000000000000FA
:1036C000000000000000000000F00019F8001B18C6
:1036D000002208002608002408002410003FF800FB
:1036E0001FF800000800001800000004000007FF99
:1036F000F80FFFF00018180010080020080020083C
:10370000003018001FF0000FC00000000000000093
:1037100007C0001FF000183000200800200800201B
:1037200008003C08001C10000060000000000000C1
:103730000000000007C0001FF0003818002008003B
:10374000200800200804101007FFF80FFFF0000009
:10375000100000000000000000000007C0001FF083
:10376000001230002218002208002208003208004F
:103770001E10000E200000000000000020000020AD
:103780000800200801FFF803FFF8062008042008BD
:1037900004200807200003000000000000000000D3
:1037A000000E000E6E001FF30031B10020B10020AA
:1037B000B1003191001F13002E1E00200E003000BA
:1037C00000000004000807FFF80FFFF800100800D1
:1037D0002000002000002008003FF8001FF8000033
:1037E0000800000000000000000000200800200881
:1037F000002008063FF8063FF80000080000080017
:1038000000080000000000000000000000000000B0
:1038100003000003002001002001002003063FFEFA
:10382000063FFC0000000000000000000000000453
:10383000000807FFF80FFFF8000188000300002FC1
:10384000C00038F800203800200800000800000000
:10385000000000000000040008040008040008073D
:10386000FFF80FFFF8000008000008000008000043
:1038700000000000002008003FF8003FF80010089A
:10388000002000003FF8003FF80010080020000072
:103890003FF8003FF8000008000000002008003F4B
:1038A000F8003FF800100800100000200000200879
:1038B000003FF8001FF800000800000000000000B2
:1038C00007C0000FF000183000300800200800206A
:1038D00008003008001830000FF00007C00000009A
:1038E000000000002001003FFF003FFF001011001A
:1038F0002009002008002008003038001FF0000FC9
:10390000C00000000000000007C0001FF0003818D1
:10391000002008002008002009001011001FFF00EF
:103920003FFF0000010000000020080020080020E8
:1039300008003FF8003FF8000808001008002008C1
:1039400000200000300000300000000000000000F7
:103950000000000C78001E18003308002308002126
:10396000080021880021980030F000386000000035
:1039700000000000200000200000200000FFF003F5
:10398000FFF8002008002008002008000030000098
:1039900000000000000000002000003FF0007FF861
:1039A000000018000008000008002010003FF80088
:1039B0007FF0000010000000000000002000003038
:1039C00000003C00003F800023F000007800007001
:1039D000002380003C000030000020000020000098
:1039E0003C00003FE00023F80000E0002700003E1C
:1039F00000003FE00021F80001E0003E0000200050
:103A0000000000002008002008003838003E680050
:103A100027800003C8002CF8003838002018002048
:103A200008000000000000002000003003003C01FE
:103A3000003F830023EC000070002380003C000066
:103A400020000020000000000000000000000038FE
:103A5000080020380020F80023E8002F88003E08E6
:103A6000003808002018000070000000000000006E
:103A7000000000000000000000000000080000142A
:103A8000001FF7FC300006200002000000000000CC
:103A90000000000000000000000000000000000026
:103AA0000000FFFFFF000000000000000000000019
:103AB00000000000000000000000200002300006AE
:103AC0001FF7FC00140000080000000000000000C8
:103AD000000000000000000000000018000060006E
:103AE000004000004000002000001000000800001E
:103AF0000400000400000C0000100000B5E7020004
:103B0000020002007FF0421042107FF0421042108B
:103B10007FF042000208020801F800000000D7D33D
:103B20007FF000200040008001000200FFF802004A
:103B3000020002000200020002000E00000000006D
:103B4000BCBC10201020102013FEFC2010201020E0
:103B500015FC18843088D04810501020105051881F
:103B60002606CAF501000120011001107FFC038028
:103B700005400540092011102108410401020100FF
:103B800001000100D2BA0080404027F811400140F6
:103B90008278424816A81AD0235022204220425050
:103BA000028800000000BEA73FE020203FE0202068
:103BB0003FE00000FDF885088508FDF885088508C8
:103BC000FDF8850800000000B2E200084F88288850
:103BD0000AA88AA84AA80AA82AA82AA84228450802
:103BE00084888888103800000000CAD440502048DB
:103BF00020400FF80040E040274022402240222091
:103C00002A2833A82E18000800000000B3CC0000BA
:103C10001BF0E210221023F0F800200033F068803F
:103C20006080A3F02080208027F800000000D0F200
:103C3000020001003FF820002FF0202022402180C8
:103C40003FF8208820904080408083800000000062
:103C5000D1D5200010F87E20444028F87E8848A85E
:103C600050A864A848A872A8845018886108000069
:103C70000000C9AB100010003FE0404080807FF0A2
:103C80004210421042107FF04000400840083FF8C8
:103C900000000000CCEE20802FF8208027F0F410E8
:103CA00027F0241027F0241027F03410CFF802203A
:103CB000041000000000B3E404000200FFF8080054
:103CC000104020207FF0089008800880088010882D
:103CD0002088C07800000000CEC40400020002006A
:103CE000FFF8104010400880088005000200050021
:103CF00008803060C01800000000D7D60400020021
:103D0000FFF8800880083FC0008001000200FFF833
:103D10000200020002000E0000000000CFD43FE0CD
:103D2000202020203FE0202020203FE008804890F5
:103D3000289028A008800880FFF800000000CABE74
:103D400000003FE0000000000000FFF80200124009
:103D5000122022104208820802000E00000000001B
:103D6000CDBC7FF84008440847C8484854884308F9
:103D70004CC8733840884C08430840887FF80000DE
:103D80000000C6AC00802080208020803FF0200012
:103D9000200020003FC02040204020404040804084
:103DA00000000000B4A520403840484091F07D500C
:103DB000555055507D5055F054407C40545057F864
:103DC0008C0800000000C3FE2220222027F8FA20E1
:103DD00027F0241027F03410E7F020802FF821403E
:103DE0002220EC1800000000CAE440804140F2208C
:103DF00044108BE8A000F78824A827A834A8E7A8D7
:103E000024A8248825B800000000C8EB080004009E
:103E10000400020002000500050008800880104030
:103E2000104020204010800800000000C8AB0200B5
:103E300002000500088010402020DFD802000200A8
:103E40001FC0020002000200FFF800000000B3CC17
:103E500000001BF0E210221023F0F800200033F0E5
:103E600068806080A3F02080208027F80000000098
:103E7000BCBC208020802080F7F02080208027E0BC
:103E80003220E2202140208021402220EC18000036
:103E90000000CAF50200024002200200FFF80700FD
:103EA0000A800A801240222042108208020002008A
:103EB00000000000D6A702000200FFF80200020086
:103EC0007FE010201040088005000200050018C0A7
:103ED000E03800000000B3D62080208023F0F88076
:103EE000208027F828203020E7F8202022202120D9
:103EF0002020E0E000000000D7A8020002007FF0D0
:103F000004000400FFF8080010003FE0002000401B
:103F10001C800300008000000000D7A20100408048
:103F2000200017F0008080804080008017F0108013
:103F30002080208040804FF800000000C5FA20401B
:103F400024402440F4482450276024403440E44076
:103F50002440244025482648E43800000000B7A249
:103F600002002220221044007FF8040008000FE025
:103F7000142024404280810006C038380000000030
:103F8000B3C900A0009000807FF8408040907C90F2
:103F9000449044A044A0444858A841188208000016
:103FA0000000B9A601000100F90023F02110211042
:103FB0002110211021103910C210021004100860C5
:103FC00000000000D2C60000002000780CE4790454
:103FD000516810307E6019981A3C2FE448E4083884
:103FE000003000600000D1A100000120012003FC8E
:103FF00062203420042003FC240021B02120222050
:10400000323E18000FE00000D4F10000000010FC68
:104010001304110C3DF8703E10D015907CF0503E0A
:1040200018101BFE023000200000CFEE0000000040
:1040300003FE00607C4012FC1104110611361124AD
:104040001F44794400C0009C01860000C4BF0000EA
:1040500000000FE03C18200820043E0460046004C7
:104060007E046004200C20081FF001800000B6CC04
:104070000000080011FC103E3EF82D8C2904490474
:1040800009043E8C50FC10881EC811FC100E000064
:10409000B0B400000040006012FE13023A427F44B8
:1040A00010C41BFE3C987190113011A00078004C98
:1040B0000000C8B70000004000F878C41F8C3138F9
:1040C00021EC2126413A7DE2272225FA3D260124D2
:1040D00001040000B6A80000010001705FFC70043C
:1040E00020042FF801001100113821C431003F00D5
:1040F00063E040380000B3A4000000000818086026
:1041000008C00B001E00181C7FF01000118010E08A
:104110001838098E0F000000B0B4000000400060A5
:1041200012FE13023A427F4410C41BFE3C98719069
:10413000113011A00078004C0000B7B5000000005D
:1041400007F80600240014F8078C04042408261835
:1041500025F0647C64C220801FC00000BBD8000032
:1041600000001FF030182008278C2C4428442844D5
:104170002CC427842004300C1FF803800000C7B62D
:104180000100210821083FF800202220223EFF42A2
:10419000229422103E10221022283E28224400821F
:1041A000CABD0048004400440040FFFE00400040FB
:1041B0003E4008400840082008220F12780A2006D6
:1041C0000002BFAA00007FFC082008200820082069
:1041D0000820FFFE082008200820082010201020BA
:1041E00020204020B7A201001110110822003FFC3E
:1041F0000200040007F80A080908111010A0204066
:1042000040A003181C06CDF800007FFC40044004C9
:10421000421452944A54442444244A544A545294D2
:104220006104400440144008D6D0010001000100A0
:1042300001003FF8210821082108210821083FF842
:1042400021080100010001000100CEC402000100AC
:104250000100FFFE1010101008200820044002800A
:1042600001000280044008203018C006B2E20004B9
:1042700027C41444145485544554455415541554B6
:104280002554E55421042284224424140808CAD465
:10429000002820241024102007FE0020F02017E022
:1042A000112011101110151019CA170A0206000268
:1042B000D6D3102010203C20202041FCBD24112406
:1042C0001124FD2411FC112410201420182010208A
:1042D0000020D4C600003FF80000000000000000ED
:1042E000FFFE0200040004000840102020107FF8A8
:1042F00020080008BAC600402240124013FC844047
:104300004840404017FE10002000E3F82208220831
:10431000220823F80208CEBA0C20704011FCFF24BA
:10432000392455FC9324012411FCFC40246844B238
:1043300028BE11202922C61ED6BE010001000100A0
:10434000FFFE0100010001003FF8000001000888A5
:1043500048844812481287F00000C5F40010772006
:10436000557C5544556477545544554C5540777E9B
:1043700055025502557AB502890A1304B0E000804F
:104380000080F8BE2288228822882288FABE2288ED
:10439000248820883908E108423E04000800000013
:1043A000000000000000000000000000000000000D
:1043B00000000000000000000000000000000000FD
:1043C000B4F300000000000000180000100000100E
:1043D0000000100000100000100C3FFFFE00100055
:1043E0000018000018000034000034000022000013
:1043F000620000410000C1800080C0010060060032
:104400003808001C300000000000D4BD000000008F
:1044100000000300C00200B00200980260881F88FC
:104420008C020FF0020C80022C887FDC88030C9039
:104430001B0CD01B0C6013EE60131E64130CF413E2
:10444000019C1B020C27040421D800407FFC40077C
:10445000F8000000B4B4000000000000038008036E
:10446000000C02E00C06300C04198C08088C0800C3
:104470008C18208C2FF08C48208C08208C08208CE5
:1044800008208C08608C09C10C08080C08080C086E
:10449000080C0C0C0C07FC78000010000000D0C2C7
:1044A00000000000000002000801003C0133C03E93
:1044B000C200086200044200048200049A0C3FFF1C
:1044C000FE0102300102300112301FE230010230E1
:1044D0000D42301936301114302114302108304784
:1044E0001030022030000000D2BA000000000000AE
:1044F0000006001803000C020C04FDF001198001F5
:1045000011004233083222F812421812651004E4F6
:1045100090056AB0056A200A71200861403860C0C1
:104520001860C018616018623018641E08780000B6
:104530000000BEA700000000000001004001FFC015
:1045400001004001004001FFC001004001004001A6
:10455000FFC00100400000001064081FE7F810468B
:10456000081046081046081FC7F8104608104608ED
:104570001046081FC7F8104608000000C6C100001A
:10458000000000000800000FFFF80C00180C0018D5
:104590000FFFF80C40900C30C00C10800C11100D67
:1045A000FFF808308008308008308808309C1FFFF2
:1045B000E01020801020802060802040804080809B
:1045C000030080000000B2E20000000000001100C3
:1045D0000C09FE080D860805864801A64841B64824
:1045E00033B64813B64815B64805B64805B648056B
:1045F000B64809A64809A64839A4481820481858BA
:104600000818440818860819023806001800000027
:10461000CAD40000000000000001A01001D808006A
:10462000880C008804008400FFFE000080000080E9
:104630000400803C0280047DC00408C004084004DB
:104640000840044860048822050F3407381406E047
:104650001C04000E00000600000000000000000026
:10466000000000000000000000000000000000004A
:10467000000000000000000000000000000000003A
:10468000000000000000000000000000000000002A
:10469000000000000000000000000000000000001A
:1046A00000000000C4460008000000204400000094
:1046B000782100080847000844000020CC050000CD
:1046C0008821000800A24A04000000000000000049
:1046D000010203040607080901000000FFFF0100B2
:1046E0001F00FFFF000000000000000000000000AD
:1046F0000000000000000102030401020304060799
:0847000008090204060800008C
:0400000508000131BD
:00000001FF
